{
  "contractName": "Issues",
  "abi": [
    {
      "anonymous": false,
      "inputs": [
        {
          "indexed": false,
          "name": "voter",
          "type": "address"
        },
        {
          "indexed": false,
          "name": "issueId",
          "type": "uint256"
        },
        {
          "indexed": false,
          "name": "choice",
          "type": "bytes32"
        }
      ],
      "name": "VoteCast",
      "type": "event"
    },
    {
      "anonymous": false,
      "inputs": [
        {
          "indexed": false,
          "name": "creator",
          "type": "address"
        },
        {
          "indexed": false,
          "name": "issue",
          "type": "bytes32"
        },
        {
          "indexed": false,
          "name": "choices",
          "type": "bytes32[]"
        }
      ],
      "name": "IssueCreated",
      "type": "event"
    },
    {
      "constant": false,
      "inputs": [
        {
          "name": "_issue",
          "type": "bytes32"
        },
        {
          "name": "_choices",
          "type": "bytes32[]"
        }
      ],
      "name": "createIssue",
      "outputs": [],
      "payable": false,
      "stateMutability": "nonpayable",
      "type": "function"
    },
    {
      "constant": true,
      "inputs": [],
      "name": "getIssueCount",
      "outputs": [
        {
          "name": "",
          "type": "uint256"
        }
      ],
      "payable": false,
      "stateMutability": "view",
      "type": "function"
    },
    {
      "constant": true,
      "inputs": [
        {
          "name": "_id",
          "type": "uint256"
        }
      ],
      "name": "getIssue",
      "outputs": [
        {
          "name": "_issue",
          "type": "bytes32"
        },
        {
          "name": "choices",
          "type": "bytes32[]"
        }
      ],
      "payable": false,
      "stateMutability": "view",
      "type": "function"
    },
    {
      "constant": false,
      "inputs": [
        {
          "name": "_choice",
          "type": "bytes32"
        },
        {
          "name": "_issueId",
          "type": "uint256"
        }
      ],
      "name": "castVote",
      "outputs": [],
      "payable": false,
      "stateMutability": "nonpayable",
      "type": "function"
    }
  ],
  "bytecode": "0x60806040526000805534801561001457600080fd5b50610511806100246000396000f3fe608060405234801561001057600080fd5b506004361061004c5760003560e01c80630d4c47081461005157806375a12d721461006f5780638bee75a3146100a7578063976b311314610169575b600080fd5b6100596101f3565b6040518082815260200191505060405180910390f35b6100a56004803603604081101561008557600080fd5b8101908080359060200190929190803590602001909291905050506101fc565b005b610167600480360360408110156100bd57600080fd5b8101908080359060200190929190803590602001906401000000008111156100e457600080fd5b8201836020820111156100f657600080fd5b8035906020019184602083028401116401000000008311171561011857600080fd5b919080806020026020016040519081016040528093929190818152602001838360200280828437600081840152601f19601f8201169050808301925050505050505091929192905050506102cb565b005b6101956004803603602081101561017f57600080fd5b81019080803590602001909291905050506103e7565b6040518083815260200180602001828103825283818151815260200191508051906020019060200280838360005b838110156101de5780820151818401526020810190506101c3565b50505050905001935050505060405180910390f35b60008054905090565b816001600083815260200190815260200160002060020160003373ffffffffffffffffffffffffffffffffffffffff1673ffffffffffffffffffffffffffffffffffffffff168152602001908152602001600020819055507fe7b065412490d7bc97ecb5670949412095fff21ba368d79f16eb28ce69c0c828338284604051808473ffffffffffffffffffffffffffffffffffffffff1673ffffffffffffffffffffffffffffffffffffffff168152602001838152602001828152602001935050505060405180910390a15050565b604051806040016040528083815260200182815250600160008054815260200190815260200160002060008201518160000155602082015181600101908051906020019061031a929190610473565b5090505060008081548092919060010191905055507ff87467851497a3d524b9d600d888084632697fc11dba236f605e888ae1bfc810338383604051808473ffffffffffffffffffffffffffffffffffffffff1673ffffffffffffffffffffffffffffffffffffffff16815260200183815260200180602001828103825283818151815260200191508051906020019060200280838360005b838110156103ce5780820151818401526020810190506103b3565b5050505090500194505050505060405180910390a15050565b600060606001600084815260200190815260200160002060000154600160008581526020019081526020016000206001018080548060200260200160405190810160405280929190818152602001828054801561046357602002820191906000526020600020905b81548152602001906001019080831161044f575b5050505050905091509150915091565b8280548282559060005260206000209081019282156104af579160200282015b828111156104ae578251825591602001919060010190610493565b5b5090506104bc91906104c0565b5090565b6104e291905b808211156104de5760008160009055506001016104c6565b5090565b9056fea165627a7a7230582064a8dc28df91aad85e584a238364d54d3064e4d56be8bca4f786fec77cde9b270029",
  "source": "pragma solidity >=0.4.21 <0.6.0;\n\ncontract Issues {\n  uint issueCount = 0;\n\n  event VoteCast(address voter, uint issueId, bytes32 choice);\n  event IssueCreated(address creator, bytes32 issue, bytes32[] choices);\n\n  struct Issue {\n    bytes32 issueText;\n    bytes32[] choices;\n    mapping ( address => bytes32 ) votes;\n  }\n\n  mapping (uint => Issue) issues;\n\n  function createIssue(bytes32 _issue, bytes32[] memory _choices) public {\n    issues[issueCount] = Issue(_issue, _choices);\n    issueCount++;\n    emit IssueCreated(msg.sender, _issue, _choices);\n  }\n\n  function getIssueCount() public view returns (uint) {\n    return issueCount;\n  }\n\n  function getIssue(uint _id) public view returns (bytes32 _issue, bytes32[] memory choices) {\n    return (issues[_id].issueText, issues[_id].choices);\n  }\n\n  function castVote(bytes32 _choice, uint _issueId) public {\n    issues[_issueId].votes[msg.sender] = _choice;\n    emit VoteCast(msg.sender, _issueId, _choice);\n  }\n\n  modifier canVote (uint _issueId) {\n    require(issues[_issueId].votes[msg.sender] == 0, \"You've already voted on this issue.\");\n    _;\n  }\n}\n",
  "sourcePath": "/Users/jameskehoe/code/tuts/testing/contracts/Issues.sol",
  "compiler": {
    "name": "solc",
    "version": "0.5.8+commit.23d335f2.Emscripten.clang"
  },
  "schemaVersion": "3.0.10",
  "updatedAt": "2019-07-24T02:06:23.249Z",
  "devdoc": {
    "methods": {}
  },
  "userdoc": {
    "methods": {}
  }
}