{
  "contractName": "Issues",
  "abi": [
    {
      "constant": true,
      "inputs": [
        {
          "name": "",
          "type": "uint256"
        }
      ],
      "name": "issues",
      "outputs": [
        {
          "name": "issueId",
          "type": "uint256"
        },
        {
          "name": "issue",
          "type": "bytes32"
        }
      ],
      "payable": false,
      "stateMutability": "view",
      "type": "function"
    },
    {
      "constant": true,
      "inputs": [
        {
          "name": "",
          "type": "uint256"
        }
      ],
      "name": "votes",
      "outputs": [
        {
          "name": "issueId",
          "type": "uint256"
        },
        {
          "name": "voter",
          "type": "address"
        },
        {
          "name": "choice",
          "type": "bytes32"
        }
      ],
      "payable": false,
      "stateMutability": "view",
      "type": "function"
    },
    {
      "anonymous": false,
      "inputs": [
        {
          "indexed": false,
          "name": "voter",
          "type": "address"
        },
        {
          "indexed": false,
          "name": "issueId",
          "type": "uint256"
        },
        {
          "indexed": false,
          "name": "choice",
          "type": "bytes32"
        }
      ],
      "name": "VoteCast",
      "type": "event"
    },
    {
      "anonymous": false,
      "inputs": [
        {
          "indexed": false,
          "name": "creator",
          "type": "address"
        },
        {
          "indexed": false,
          "name": "issue",
          "type": "bytes32"
        },
        {
          "indexed": false,
          "name": "choices",
          "type": "bytes32[]"
        }
      ],
      "name": "IssueCreated",
      "type": "event"
    },
    {
      "constant": false,
      "inputs": [
        {
          "name": "_issue",
          "type": "bytes32"
        },
        {
          "name": "_choices",
          "type": "bytes32[]"
        }
      ],
      "name": "createIssue",
      "outputs": [],
      "payable": false,
      "stateMutability": "nonpayable",
      "type": "function"
    },
    {
      "constant": true,
      "inputs": [],
      "name": "getIssueCount",
      "outputs": [
        {
          "name": "",
          "type": "uint256"
        }
      ],
      "payable": false,
      "stateMutability": "view",
      "type": "function"
    },
    {
      "constant": true,
      "inputs": [
        {
          "name": "_id",
          "type": "uint256"
        }
      ],
      "name": "getIssue",
      "outputs": [
        {
          "name": "_issue",
          "type": "bytes32"
        },
        {
          "name": "choices",
          "type": "bytes32[]"
        }
      ],
      "payable": false,
      "stateMutability": "view",
      "type": "function"
    },
    {
      "constant": false,
      "inputs": [
        {
          "name": "_choice",
          "type": "bytes32"
        },
        {
          "name": "_issueId",
          "type": "uint256"
        }
      ],
      "name": "castVote",
      "outputs": [],
      "payable": false,
      "stateMutability": "nonpayable",
      "type": "function"
    },
    {
      "constant": true,
      "inputs": [
        {
          "name": "_issueId",
          "type": "uint256"
        }
      ],
      "name": "canVoteOnIssue",
      "outputs": [
        {
          "name": "",
          "type": "bool"
        }
      ],
      "payable": false,
      "stateMutability": "view",
      "type": "function"
    }
  ],
  "bytecode": "0x6080604052600060025534801561001557600080fd5b506108be806100256000396000f3fe608060405234801561001057600080fd5b506004361061007d5760003560e01c806375a12d721161005b57806375a12d72146101655780638bee75a31461019d578063976b31131461025f578063ec959730146102e95761007d565b806304e15de5146100825780630d4c4708146100cb5780635df81330146100e9575b600080fd5b6100ae6004803603602081101561009857600080fd5b810190808035906020019092919050505061032f565b604051808381526020018281526020019250505060405180910390f35b6100d3610360565b6040518082815260200191505060405180910390f35b610115600480360360208110156100ff57600080fd5b810190808035906020019092919050505061036a565b604051808481526020018373ffffffffffffffffffffffffffffffffffffffff1673ffffffffffffffffffffffffffffffffffffffff168152602001828152602001935050505060405180910390f35b61019b6004803603604081101561017b57600080fd5b8101908080359060200190929190803590602001909291905050506103c1565b005b61025d600480360360408110156101b357600080fd5b8101908080359060200190929190803590602001906401000000008111156101da57600080fd5b8201836020820111156101ec57600080fd5b8035906020019184602083028401116401000000008311171561020e57600080fd5b919080806020026020016040519081016040528093929190818152602001838360200280828437600081840152601f19601f820116905080830192505050505050509192919290505050610500565b005b61028b6004803603602081101561027557600080fd5b8101908080359060200190929190505050610654565b6040518083815260200180602001828103825283818151815260200191508051906020019060200280838360005b838110156102d45780820151818401526020810190506102b9565b50505050905001935050505060405180910390f35b610315600480360360208110156102ff57600080fd5b81019080803590602001909291905050506106f0565b604051808215151515815260200191505060405180910390f35b6000818154811061033c57fe5b90600052602060002090600302016000915090508060000154908060010154905082565b6000600254905090565b6001818154811061037757fe5b90600052602060002090600302016000915090508060000154908060010160009054906101000a900473ffffffffffffffffffffffffffffffffffffffff16908060020154905083565b6103c96107c2565b60405180606001604052808381526020013373ffffffffffffffffffffffffffffffffffffffff168152602001848152509050600181908060018154018082558091505090600182039060005260206000209060030201600090919290919091506000820151816000015560208201518160010160006101000a81548173ffffffffffffffffffffffffffffffffffffffff021916908373ffffffffffffffffffffffffffffffffffffffff160217905550604082015181600201555050507fe7b065412490d7bc97ecb5670949412095fff21ba368d79f16eb28ce69c0c828338385604051808473ffffffffffffffffffffffffffffffffffffffff1673ffffffffffffffffffffffffffffffffffffffff168152602001838152602001828152602001935050505060405180910390a1505050565b6105086107fc565b604051806060016040528060025481526020018481526020018381525090506000819080600181540180825580915050906001820390600052602060002090600302016000909192909190915060008201518160000155602082015181600101556040820151816002019080519060200190610585929190610820565b505050506002600081548092919060010191905055507ff87467851497a3d524b9d600d888084632697fc11dba236f605e888ae1bfc810338484604051808473ffffffffffffffffffffffffffffffffffffffff1673ffffffffffffffffffffffffffffffffffffffff16815260200183815260200180602001828103825283818151815260200191508051906020019060200280838360005b8381101561063a57808201518184015260208101905061061f565b5050505090500194505050505060405180910390a1505050565b600060606000838154811061066557fe5b9060005260206000209060030201600101546000848154811061068457fe5b9060005260206000209060030201600201808054806020026020016040519081016040528092919081815260200182805480156106e057602002820191906000526020600020905b8154815260200190600101908083116106cc575b5050505050905091509150915091565b600080600090505b6001805490508110156107b7573373ffffffffffffffffffffffffffffffffffffffff166001828154811061072957fe5b906000526020600020906003020160010160009054906101000a900473ffffffffffffffffffffffffffffffffffffffff1673ffffffffffffffffffffffffffffffffffffffff1614801561079b5750826001828154811061078757fe5b906000526020600020906003020160000154145b156107aa5760009150506107bd565b80806001019150506106f8565b50600190505b919050565b604051806060016040528060008152602001600073ffffffffffffffffffffffffffffffffffffffff168152602001600080191681525090565b60405180606001604052806000815260200160008019168152602001606081525090565b82805482825590600052602060002090810192821561085c579160200282015b8281111561085b578251825591602001919060010190610840565b5b509050610869919061086d565b5090565b61088f91905b8082111561088b576000816000905550600101610873565b5090565b9056fea165627a7a72305820d2096321da193f01d636e61e4ad855c3a66a1c5a87c2acd8b30a497742aab04e0029",
  "source": "pragma solidity >=0.4.21 <0.6.0;\n\ncontract Issues {\n  Issue[] public issues;\n  Vote[] public votes;\n  uint issueCount = 0;\n\n  event VoteCast(address voter, uint issueId, bytes32 choice);\n  event IssueCreated(address creator, bytes32 issue, bytes32[] choices);\n\n  struct Issue {\n    uint issueId;\n    bytes32 issue;\n    bytes32[] choices;\n  }\n\n  struct Vote {\n    uint issueId;\n    address voter;\n    bytes32 choice;\n  }\n\n  function createIssue(bytes32 _issue, bytes32[] memory _choices) public {\n    Issue memory issue = Issue(issueCount, _issue, _choices);\n    issues.push(issue);\n    issueCount++;\n    emit IssueCreated(msg.sender, _issue, _choices);\n  }\n\n  function getIssueCount() public view returns (uint) {\n    return issueCount;\n  }\n\n  function getIssue(uint _id) public view returns (bytes32 _issue, bytes32[] memory choices) {\n    return (issues[_id].issue, issues[_id].choices);\n  }\n\n  function castVote(bytes32 _choice, uint _issueId) public {\n    Vote memory vote = Vote(_issueId, msg.sender, _choice);\n    votes.push(vote);\n    emit VoteCast(msg.sender, _issueId, _choice);\n  }\n\n  function canVoteOnIssue(uint _issueId) public view returns (bool) {\n    for (uint i = 0; i < votes.length; i++) {\n            if (votes[i].voter == msg.sender && votes[i].issueId == _issueId) {\n                return false;\n            }\n        }\n      return true;\n  }\n}\n",
  "sourcePath": "/Users/jameskehoe/code/tuts/testing/contracts/Issues.sol",
  "compiler": {
    "name": "solc",
    "version": "0.5.8+commit.23d335f2.Emscripten.clang"
  },
  "schemaVersion": "3.0.10",
  "updatedAt": "2019-07-18T22:54:09.883Z",
  "devdoc": {
    "methods": {}
  },
  "userdoc": {
    "methods": {}
  }
}