{
  "contractName": "Issues",
  "abi": [
    {
      "constant": true,
      "inputs": [
        {
          "name": "",
          "type": "uint256"
        }
      ],
      "name": "issues",
      "outputs": [
        {
          "name": "issueId",
          "type": "uint256"
        },
        {
          "name": "issue",
          "type": "bytes32"
        }
      ],
      "payable": false,
      "stateMutability": "view",
      "type": "function"
    },
    {
      "constant": true,
      "inputs": [
        {
          "name": "",
          "type": "uint256"
        }
      ],
      "name": "votes",
      "outputs": [
        {
          "name": "issueId",
          "type": "uint256"
        },
        {
          "name": "voter",
          "type": "address"
        },
        {
          "name": "choice",
          "type": "bytes32"
        }
      ],
      "payable": false,
      "stateMutability": "view",
      "type": "function"
    },
    {
      "anonymous": false,
      "inputs": [
        {
          "indexed": false,
          "name": "voter",
          "type": "address"
        },
        {
          "indexed": false,
          "name": "issueId",
          "type": "uint256"
        },
        {
          "indexed": false,
          "name": "choice",
          "type": "bytes32"
        }
      ],
      "name": "VoteCast",
      "type": "event"
    },
    {
      "anonymous": false,
      "inputs": [
        {
          "indexed": false,
          "name": "creator",
          "type": "address"
        },
        {
          "indexed": false,
          "name": "issue",
          "type": "bytes32"
        },
        {
          "indexed": false,
          "name": "choices",
          "type": "bytes32[]"
        }
      ],
      "name": "IssueCreated",
      "type": "event"
    },
    {
      "constant": false,
      "inputs": [
        {
          "name": "_issue",
          "type": "bytes32"
        },
        {
          "name": "_choices",
          "type": "bytes32[]"
        }
      ],
      "name": "createIssue",
      "outputs": [],
      "payable": false,
      "stateMutability": "nonpayable",
      "type": "function"
    },
    {
      "constant": false,
      "inputs": [
        {
          "name": "_choice",
          "type": "bytes32"
        },
        {
          "name": "_issueId",
          "type": "uint256"
        }
      ],
      "name": "castVote",
      "outputs": [],
      "payable": false,
      "stateMutability": "nonpayable",
      "type": "function"
    },
    {
      "constant": true,
      "inputs": [
        {
          "name": "_issueId",
          "type": "uint256"
        }
      ],
      "name": "canVoteOnIssue",
      "outputs": [
        {
          "name": "",
          "type": "bool"
        }
      ],
      "payable": false,
      "stateMutability": "view",
      "type": "function"
    }
  ],
  "bytecode": "0x6080604052600060025534801561001557600080fd5b5061074a806100256000396000f3fe608060405234801561001057600080fd5b50600436106100575760003560e01c806304e15de51461005c5780635df81330146100a557806375a12d72146101215780638bee75a314610159578063ec9597301461021b575b600080fd5b6100886004803603602081101561007257600080fd5b8101908080359060200190929190505050610261565b604051808381526020018281526020019250505060405180910390f35b6100d1600480360360208110156100bb57600080fd5b8101908080359060200190929190505050610292565b604051808481526020018373ffffffffffffffffffffffffffffffffffffffff1673ffffffffffffffffffffffffffffffffffffffff168152602001828152602001935050505060405180910390f35b6101576004803603604081101561013757600080fd5b8101908080359060200190929190803590602001909291905050506102e9565b005b6102196004803603604081101561016f57600080fd5b81019080803590602001909291908035906020019064010000000081111561019657600080fd5b8201836020820111156101a857600080fd5b803590602001918460208302840111640100000000831117156101ca57600080fd5b919080806020026020016040519081016040528093929190818152602001838360200280828437600081840152601f19601f820116905080830192505050505050509192919290505050610428565b005b6102476004803603602081101561023157600080fd5b810190808035906020019092919050505061057c565b604051808215151515815260200191505060405180910390f35b6000818154811061026e57fe5b90600052602060002090600302016000915090508060000154908060010154905082565b6001818154811061029f57fe5b90600052602060002090600302016000915090508060000154908060010160009054906101000a900473ffffffffffffffffffffffffffffffffffffffff16908060020154905083565b6102f161064e565b60405180606001604052808381526020013373ffffffffffffffffffffffffffffffffffffffff168152602001848152509050600181908060018154018082558091505090600182039060005260206000209060030201600090919290919091506000820151816000015560208201518160010160006101000a81548173ffffffffffffffffffffffffffffffffffffffff021916908373ffffffffffffffffffffffffffffffffffffffff160217905550604082015181600201555050507fe7b065412490d7bc97ecb5670949412095fff21ba368d79f16eb28ce69c0c828338385604051808473ffffffffffffffffffffffffffffffffffffffff1673ffffffffffffffffffffffffffffffffffffffff168152602001838152602001828152602001935050505060405180910390a1505050565b610430610688565b6040518060600160405280600254815260200184815260200183815250905060008190806001815401808255809150509060018203906000526020600020906003020160009091929091909150600082015181600001556020820151816001015560408201518160020190805190602001906104ad9291906106ac565b505050506002600081548092919060010191905055507ff87467851497a3d524b9d600d888084632697fc11dba236f605e888ae1bfc810338484604051808473ffffffffffffffffffffffffffffffffffffffff1673ffffffffffffffffffffffffffffffffffffffff16815260200183815260200180602001828103825283818151815260200191508051906020019060200280838360005b83811015610562578082015181840152602081019050610547565b5050505090500194505050505060405180910390a1505050565b600080600090505b600180549050811015610643573373ffffffffffffffffffffffffffffffffffffffff16600182815481106105b557fe5b906000526020600020906003020160010160009054906101000a900473ffffffffffffffffffffffffffffffffffffffff1673ffffffffffffffffffffffffffffffffffffffff161480156106275750826001828154811061061357fe5b906000526020600020906003020160000154145b15610636576000915050610649565b8080600101915050610584565b50600190505b919050565b604051806060016040528060008152602001600073ffffffffffffffffffffffffffffffffffffffff168152602001600080191681525090565b60405180606001604052806000815260200160008019168152602001606081525090565b8280548282559060005260206000209081019282156106e8579160200282015b828111156106e75782518255916020019190600101906106cc565b5b5090506106f591906106f9565b5090565b61071b91905b808211156107175760008160009055506001016106ff565b5090565b9056fea165627a7a72305820d489cac25c66594dda54b82aaa8376a22e89f7216cf1f477492f3a75089f5bd10029",
  "source": "pragma solidity >=0.4.21 <0.6.0;\n\ncontract Issues {\n  Issue[] public issues;\n  Vote[] public votes;\n  uint issueCount = 0;\n\n  event VoteCast(address voter, uint issueId, bytes32 choice);\n  event IssueCreated(address creator, bytes32 issue, bytes32[] choices);\n\n  struct Issue {\n    uint issueId;\n    bytes32 issue;\n    bytes32[] choices;\n  }\n\n  struct Vote {\n    uint issueId;\n    address voter;\n    bytes32 choice;\n  }\n\n  function createIssue(bytes32 _issue, bytes32[] memory _choices) public {\n    Issue memory issue = Issue(issueCount, _issue, _choices);\n    issues.push(issue);\n    issueCount++;\n    emit IssueCreated(msg.sender, _issue, _choices);\n  }\n\n  function castVote(bytes32 _choice, uint _issueId) public {\n    Vote memory vote = Vote(_issueId, msg.sender, _choice);\n    votes.push(vote);\n    emit VoteCast(msg.sender, _issueId, _choice);\n  }\n\n  function canVoteOnIssue(uint _issueId) public view returns (bool) {\n    for (uint i = 0; i < votes.length; i++) {\n            if (votes[i].voter == msg.sender && votes[i].issueId == _issueId) {\n                return false;\n            }\n        }\n      return true;\n  }\n}\n",
  "sourcePath": "/Users/jameskehoe/code/tuts/testing/contracts/Issues.sol",
  "compiler": {
    "name": "solc",
    "version": "0.5.8+commit.23d335f2.Emscripten.clang"
  },
  "schemaVersion": "3.0.10",
  "updatedAt": "2019-07-10T11:19:28.846Z",
  "devdoc": {
    "methods": {}
  },
  "userdoc": {
    "methods": {}
  }
}