{
  "contractName": "Issues",
  "abi": [
    {
      "anonymous": false,
      "inputs": [
        {
          "indexed": false,
          "name": "voter",
          "type": "address"
        },
        {
          "indexed": false,
          "name": "issueId",
          "type": "uint256"
        },
        {
          "indexed": false,
          "name": "choice",
          "type": "bytes32"
        }
      ],
      "name": "VoteCast",
      "type": "event"
    },
    {
      "anonymous": false,
      "inputs": [
        {
          "indexed": false,
          "name": "creator",
          "type": "address"
        },
        {
          "indexed": false,
          "name": "issue",
          "type": "bytes32"
        },
        {
          "indexed": false,
          "name": "choices",
          "type": "bytes32"
        }
      ],
      "name": "IssueCreated",
      "type": "event"
    },
    {
      "constant": false,
      "inputs": [
        {
          "name": "_issue",
          "type": "bytes32"
        },
        {
          "name": "_choices",
          "type": "bytes32"
        }
      ],
      "name": "createIssue",
      "outputs": [],
      "payable": false,
      "stateMutability": "nonpayable",
      "type": "function"
    },
    {
      "constant": true,
      "inputs": [],
      "name": "getIssueCount",
      "outputs": [
        {
          "name": "",
          "type": "uint256"
        }
      ],
      "payable": false,
      "stateMutability": "view",
      "type": "function"
    },
    {
      "constant": true,
      "inputs": [],
      "name": "getIssues",
      "outputs": [
        {
          "name": "",
          "type": "bytes32[]"
        }
      ],
      "payable": false,
      "stateMutability": "view",
      "type": "function"
    },
    {
      "constant": true,
      "inputs": [],
      "name": "getChoices",
      "outputs": [
        {
          "name": "",
          "type": "bytes32[]"
        }
      ],
      "payable": false,
      "stateMutability": "view",
      "type": "function"
    },
    {
      "constant": true,
      "inputs": [],
      "name": "getVotes",
      "outputs": [
        {
          "name": "",
          "type": "uint256[]"
        },
        {
          "name": "",
          "type": "address[]"
        },
        {
          "name": "",
          "type": "bytes32[]"
        }
      ],
      "payable": false,
      "stateMutability": "view",
      "type": "function"
    },
    {
      "constant": false,
      "inputs": [
        {
          "name": "_choice",
          "type": "bytes32"
        },
        {
          "name": "_issueId",
          "type": "uint256"
        }
      ],
      "name": "castVote",
      "outputs": [],
      "payable": false,
      "stateMutability": "nonpayable",
      "type": "function"
    }
  ],
  "bytecode": "0x60806040526000805534801561001457600080fd5b506107b4806100246000396000f3fe608060405234801561001057600080fd5b50600436106100625760003560e01c80630d4c4708146100675780630dc96015146100855780634434f9731461017457806375a12d72146101d35780637fc9977b1461020b57806398c81bbf14610243575b600080fd5b61006f6102a2565b6040518082815260200191505060405180910390f35b61008d6102ab565b60405180806020018060200180602001848103845287818151815260200191508051906020019060200280838360005b838110156100d85780820151818401526020810190506100bd565b50505050905001848103835286818151815260200191508051906020019060200280838360005b8381101561011a5780820151818401526020810190506100ff565b50505050905001848103825285818151815260200191508051906020019060200280838360005b8381101561015c578082015181840152602081019050610141565b50505050905001965050505050505060405180910390f35b61017c61047f565b6040518080602001828103825283818151815260200191508051906020019060200280838360005b838110156101bf5780820151818401526020810190506101a4565b505050509050019250505060405180910390f35b610209600480360360408110156101e957600080fd5b8101908080359060200190929190803590602001909291905050506104d7565b005b6102416004803603604081101561022157600080fd5b810190808035906020019092919080359060200190929190505050610616565b005b61024b6106f6565b6040518080602001828103825283818151815260200191508051906020019060200280838360005b8381101561028e578082015181840152602081019050610273565b505050509050019250505060405180910390f35b60008054905090565b6060806060806003805490506040519080825280602002602001820160405280156102e55781602001602082028038833980820191505090505b509050606060038054905060405190808252806020026020018201604052801561031e5781602001602082028038833980820191505090505b50905060606003805490506040519080825280602002602001820160405280156103575781602001602082028038833980820191505090505b50905060008090505b60038054905081101561046d576003818154811061037a57fe5b90600052602060002090600302016000015484828151811061039857fe5b602002602001018181525050600381815481106103b157fe5b906000526020600020906003020160010160009054906101000a900473ffffffffffffffffffffffffffffffffffffffff168382815181106103ef57fe5b602002602001019073ffffffffffffffffffffffffffffffffffffffff16908173ffffffffffffffffffffffffffffffffffffffff16815250506003818154811061043657fe5b90600052602060002090600302016002015482828151811061045457fe5b6020026020010181815250508080600101915050610360565b50828282955095509550505050909192565b606060018054806020026020016040519081016040528092919081815260200182805480156104cd57602002820191906000526020600020905b8154815260200190600101908083116104b9575b5050505050905090565b6104df61074e565b60405180606001604052808381526020013373ffffffffffffffffffffffffffffffffffffffff168152602001848152509050600381908060018154018082558091505090600182039060005260206000209060030201600090919290919091506000820151816000015560208201518160010160006101000a81548173ffffffffffffffffffffffffffffffffffffffff021916908373ffffffffffffffffffffffffffffffffffffffff160217905550604082015181600201555050507fe7b065412490d7bc97ecb5670949412095fff21ba368d79f16eb28ce69c0c828338385604051808473ffffffffffffffffffffffffffffffffffffffff1673ffffffffffffffffffffffffffffffffffffffff168152602001838152602001828152602001935050505060405180910390a1505050565b6001829080600181540180825580915050906001820390600052602060002001600090919290919091505550600281908060018154018082558091505090600182039060005260206000200160009091929091909150555060008081548092919060010191905055507fbd672b387a8494391a81308ff129be5e447545fbb49fa50537b6440584e82ab0338383604051808473ffffffffffffffffffffffffffffffffffffffff1673ffffffffffffffffffffffffffffffffffffffff168152602001838152602001828152602001935050505060405180910390a15050565b6060600280548060200260200160405190810160405280929190818152602001828054801561074457602002820191906000526020600020905b815481526020019060010190808311610730575b5050505050905090565b604051806060016040528060008152602001600073ffffffffffffffffffffffffffffffffffffffff16815260200160008019168152509056fea165627a7a72305820aa58d22b6cece38bf827455a771a23c67088b2cd18fa2c6aa637f8a70a06827c0029",
  "source": "pragma solidity >=0.4.21 <0.6.0;\n\ncontract Issues {\n  uint issueCount = 0;\n\n  event VoteCast(address voter, uint issueId, bytes32 choice);\n  event IssueCreated(address creator, bytes32 issue, bytes32 choices);\n\n  bytes32[] issues;\n  bytes32[] choices;\n  Vote[] votes;\n\n  struct Vote {\n    uint issueId;\n    address voter;\n    bytes32 choice;\n  }\n\n  function createIssue(bytes32 _issue, bytes32 _choices) public {\n    issues.push(_issue);\n    choices.push(_choices);\n    issueCount++;\n    emit IssueCreated(msg.sender, _issue, _choices);\n  }\n\n  function getIssueCount() public view returns (uint) {\n    return issueCount;\n  }\n\n  function getIssues() public view returns(bytes32[] memory) {\n    return issues;\n  }\n\n  function getChoices() public view returns(bytes32[] memory) {\n    return choices;\n  }\n\n  function getVotes() public view returns(uint[] memory, address[] memory, bytes32[] memory) {\n    uint[] memory ids = new uint[](votes.length);\n    address[] memory voters = new address[](votes.length);\n    bytes32[] memory vchoices = new bytes32[](votes.length);\n    for(uint i = 0; i < votes.length; i++) {\n      ids[i] = votes[i].issueId;\n      voters[i] = votes[i].voter;\n      vchoices[i] = votes[i].choice;\n    }\n    return (ids, voters, vchoices);\n  }\n\n  // function getIssue(uint _id) public view returns (bytes32 _issue, bytes32[] memory choices) {\n  //   return (issueArray[_id].issueText, issueArray[_id].choices);\n  // }\n\n  function castVote(bytes32 _choice, uint _issueId) public {\n    Vote memory vote = Vote(_issueId, msg.sender, _choice);\n    votes.push(vote);\n    emit VoteCast(msg.sender, _issueId, _choice);\n  }\n\n  // modifier canVote (uint _issueId) {\n  //   require(issues[_issueId].votes[msg.sender] == 0, \"You've already voted on this issue.\");\n  //   _;\n  // }\n}\n",
  "sourcePath": "/Users/jameskehoe/code/tuts/testing/contracts/Issues.sol",
  "compiler": {
    "name": "solc",
    "version": "0.5.8+commit.23d335f2.Emscripten.clang"
  },
  "schemaVersion": "3.0.10",
  "updatedAt": "2019-07-26T15:03:23.622Z",
  "devdoc": {
    "methods": {}
  },
  "userdoc": {
    "methods": {}
  }
}